:020000040800F2
:10000000700800209D010008A5010008A701000854
:10001000A9010008AB010008AD01000800000000C4
:10002000000000000000000000000000AF01000818
:10003000B101000800000000B3010008B50100088C
:10004000B7010008B7010008B7010008B7010008B0
:10005000B7010008B70100087D0700082109000862
:1000600065090008A9090008ED090008B7010008A2
:10007000B7010008B7010008B7010008B701000880
:10008000B7010008B7010008B7010008B701000870
:10009000B7010008B7010008B7010008310A0008DD
:1000A000B7010008B7010008B7010008B701000850
:1000B000B7010008B7010008B7010008B701000840
:1000C000B7010008B7010008B7010008B701000830
:1000D000B7010008B701000831120008B701000895
:1000E000C1070008B7010008B7010008B701000800
:1000F000B7010008B7010008B7010008B701000800
:10010000B7010008B7010008B7010008B7010008EF
:10011000B7010008B7010008B7010008B7010008DF
:10012000B7010008B7010008B7010008B7010008CF
:10013000B7010008B7010008B7010008B7010008BF
:10014000B701000805110008B7010008B701000851
:10015000B7010008B7010008B7010008B70100089F
:10016000B7010008B7010008B7010008B70100088F
:10017000B7010008B7010008B7010008000000003F
:10018000B7010008B7010008DFF80CD000F050FA02
:1001900000480047512500087008002006488047A5
:1001A00006480047FEE7FEE7FEE7FEE7FEE7FEE75C
:1001B000FEE7FEE7FEE7FEE71D12000889010008E2
:1001C0000649074A0868504343F239021044086060
:1001D0004008704701490860704700000000002097
:1001E0006D4EC641D2B201E000F8012B491EFBD290
:1001F00070470022F6E710B513460A460446194632
:10020000FFF7F0FF204610BD421C10F8011B00292B
:10021000FBD1801A704730B50B46014600202022E2
:10022000012409E021FA02F59D4205D303FA02F503
:10023000491B04FA02F52844151EA2F10102F1DC63
:1002400030BD2DE9F05F0546002092469B4688466A
:100250000646814640241BE0284641464746224642
:1002600000F00DFA53465A46C01A914110D3114678
:100270001846224600F0F4F92D1A67EB01084F46A4
:1002800022460120002100F0EBF917EB00094E4156
:10029000201EA4F10104DFDC484631462A464346CD
:1002A00000F000B830BCBDE8C09F2DE9FE4F80468D
:1002B00081EA0300C00F0C46009021F0004123F0BA
:1002C0000045B8EB0200A94105D2404621469046C0
:1002D0001C460B46024623F00040104347D0270D32
:1002E000C7F30A00C3F30A510290401A0190402854
:1002F0006BDAC3F3130040F4801B0098924620B1E0
:100300000023D2EB030A63EB0B0B01985946C0F1B3
:100310004002504600F0A4F906460D4650465946A4
:10032000019A00F0BCF910EB08006141002487EA53
:10033000115284EAE7731A4340D0009A62B3019ADB
:10034000012A4FEA075215DC001B61EB02014FF056
:10035000004202EA0752CDE90042001C41F580113B
:1003600032462B4600F0BCF903B000F045B84046D9
:100370002146F9E7001B61EB0201001C41F58013E7
:1003800000185B412018A2F5001747EB030140EA73
:10039000D570B6196D4111E06D084FEA360645EA91
:1003A000C0754FEA0752001B61EB0201001C41F5CA
:1003B000801149084FEA30000019514132462B465E
:1003C00003B000F01CB800F07CB900980122400096
:1003D0000023D0EB020263EBE073009821464FEA62
:1003E000E074B8EB000061EB0401E9E783F000433F
:1003F0005BE781F0004158E730BCBDE8C08F30BCFE
:10040000BDE8C04FFFF7DFBF2DE9FE4F81EA0304CF
:1004100004F0004421F0004100944FF0000B23F061
:10042000004350EA01045ED052EA03045BD0C3F3F8
:100430000A54C1F30A552C44A4F2F3340194A0FBEE
:100440000254C1F3130141F48011C3F3130343F4C5
:10045000801301FB024400FB034E840A970A44EA1E
:10046000815447EA8357A4FB076802958D0A05FB70
:1004700007854FEA932C04FB0C542705029D4FEA95
:10048000065847EA1637B5EB08056EEB070C870EE2
:10049000920E47EA811742EA8312A7FB0201B6EBEC
:1004A0000B0164EB00042B0D43EA0C335E1844EBA4
:1004B0001C50DA465146E7FB0201C5F313044FEA2C
:1004C0000B3343EA14534FEA0432019C43EA060318
:1004D000A4F10C040294009CCDE900B400F000F9F2
:1004E00003B000F003B800200146F9E730BCBDE8D6
:1004F000C08F2DE9F04D81EA030404F0004B21F098
:10050000004514464FF0000A23F0004150EA05026E
:1005100020D054EA01021DD0C5F30A570246C5F3A4
:100520001303C1F31300C1F30A5640F4801543F4DA
:100530008013A7EB0608101BD64608F2FD3873EBB4
:10054000050002D308F1010801E092185B41B8F1FF
:10055000000F03DA00200146BDE8F08D00204FF4C3
:100560008011064684460EE0171B73EB050705D382
:10057000121B63EB050306434CEA010C49084FEAE2
:10058000300092185B4150EA0107EDD152EA0300B6
:1005900012D082EA040083EA0501084305D0101B4B
:1005A000AB4106D20122002306E000224FF00043B7
:1005B00002E06FF0010253101AEB06004CEB0851F9
:1005C00010EB0A0041EB0B01BDE8F04D00F079B8EB
:1005D000C1F30A52C1F3130140F2FF3341F4801119
:1005E0009A4202DA00200146704740F233439A42B1
:1005F000A2F2334202DC524200F041B800F030B8BF
:1006000030B5041E71F1000404DB4FF00044404299
:1006100064EB0101141E73F1000405DB1C464FF06E
:100620000043524263EB0403994208BF904230BD3D
:100630001CB509480090094801900546009C06E059
:10064000E06840F0010394E8070098471034AC429A
:10065000F6D3FFF79DFD0000C0550008E0550008E7
:10066000202A04DB203A00FA02F100207047914072
:10067000C2F1200320FA03F3194390407047202A67
:1006800004DB203A21FA02F00021704721FA02F33C
:10069000D040C2F120029140084319467047202AF9
:1006A00006DBCB17203A41FA02F043EAE07306E09A
:1006B00041FA02F3D040C2F12002914008431946AA
:1006C000704710B5141E73F1000408DA401C41F1A4
:1006D000000192185B411A4301D120F0010010BDC6
:1006E0002DE9F04D92469B4611B1B1FA81F202E03C
:1006F000B0FA80F220329046FFF7B2FF04460F4670
:1007000040EA0A0041EA0B0153465A46084313D017
:10071000114653EA010019D0C8F140025046FFF7D4
:10072000AEFF05460E46504659464246FFF798FF33
:10073000084305D0012004E020463946BDE8F08D8D
:100740000020054346EAE0762C4337430A986305C8
:10075000E40AA0EB08000022FD0A44EA47540A30EC
:1007600002D500200146E9E7010510196941DDE9DC
:10077000084500196941BDE8F04DA2E740F2144078
:10078000C4F201000168C90708BF70470121016078
:1007900040F204110020C2F2000103E03030B0F555
:1007A000407F0BD00A189368012BF7D1137C002BE4
:1007B000F4D09369002BF1D0D0691847704700003E
:1007C000B0B540F21445C4F20105286840F20414A3
:1007D0004005C2F2000429D4286800053ED42868E8
:1007E000C00453D42868800468D42868400400F109
:1007F0007E802868000458BFB0BD4FF400402860D8
:10080000002003E03030B0F5407F0ED021188A6818
:10081000B2F5004FF6D10A7C002AF3D08A69002A8B
:10082000F0D0C869BDE8B0401047B0BD4FF480605B
:100830002860002004E000BF3030B0F5407FCBD00E
:1008400021188A68B2F5806FF6D10A7C002AF3D0AD
:100850008A69002AF0D0C8699047BDE74FF400606C
:100860002860002004E000BF3030B0F5407FB6D0F3
:1008700021188A68B2F5006FF6D10A7C002AF3D0FD
:100880008A69002AF0D0C8699047A8E74FF48050E1
:100890002860002004E000BF3030B0F5407FA1D0D8
:1008A00021188A68B2F5805FF6D10A7C002AF3D05D
:1008B0008A69002AF0D0C869904793E74FF4005046
:1008C0002860002005E000BF3030B0F5407F3FF4E5
:1008D0008CAF21188A68B2F5005FF5D10A7C002A36
:1008E000F2D08A69002AEFD0C86990477DE74FF4BB
:1008F00080402860002004E03030B0F5407F3FF4B5
:1009000078AF21188A68B2F5804FF5D10A7C002AA9
:10091000F2D08A69002AEFD0C869904769E70000E1
:1009200040F21440C4F201000168890758BF7047C3
:100930000221016040F204110020C2F2000103E034
:100940003030B0F5407F0BD00A189368022BF7D1F6
:10095000137C002BF4D09369002BF1D0D069184799
:100960007047000040F21440C4F2010001684907DA
:1009700058BF70470421016040F204110020C2F208
:10098000000103E03030B0F5407F0BD00A189368C7
:10099000042BF7D1137C002BF4D09369002BF1D0FA
:1009A000D06918477047000040F21440C4F20100BB
:1009B0000168090758BF70470821016040F204111F
:1009C0000020C2F2000103E03030B0F5407F0BD0D0
:1009D0000A189368082BF7D1137C002BF4D0936985
:1009E000002BF1D0D06918477047000040F2144046
:1009F000C4F201000168C90658BF704710210160A8
:100A000040F204110020C2F2000103E03030B0F5E2
:100A1000407F0BD00A189368102BF7D1137C002B62
:100A2000F4D09369002BF1D0D069184770470000CB
:100A3000B0B540F21445C4F20105286840F2041430
:100A40008006C2F2000425D42868400637D42868FE
:100A500000064AD42868C0055DD42868800558BFC0
:100A6000B0BD4FF400702860002003E03030B0F5D6
:100A7000407F0ED021188A68B2F5007FF6D10A7C3B
:100A8000002AF3D08A69002AF0D0C869BDE8B040D6
:100A90001047B0BD20202860002003E03030B0F5C2
:100AA000407FD1D021188A68202AF7D10A7C002AF9
:100AB000F4D08A69002AF1D0C8699047C4E7402081
:100AC0002860002004E000BF3030B0F5407FBED089
:100AD00021188A68402AF7D10A7C002AF4D08A6952
:100AE000002AF1D0C8699047B1E780202860002033
:100AF00004E000BF3030B0F5407FABD021188A68E9
:100B0000802AF7D10A7C002AF4D08A69002AF1D021
:100B1000C86990479EE74FF480702860002004E089
:100B20003030B0F5407F3FF498AF21188A68B2F5B5
:100B3000807FF5D10A7C002AF2D08A69002AEFD0A2
:100B4000C869904789E7000080B5017A036840F2E0
:100B5000004EC4F2010E89B153B3417A02292ED05E
:100B6000012928D0C1BBDEF804109943CEF8041047
:100B7000DEF800101943CEF800102AE0DEF800106D
:100B80004FF0000C9943CEF80010DEF804109943A2
:100B9000CEF804104068DEF820108143CEF8201013
:100BA000DEF8241021EA0000CEF82400604680BD63
:100BB0004FF0000C35E0DEF80010994302E0DEF85B
:100BC00000101943CEF80010DEF804101943CEF8D7
:100BD00004104FF0000C01E04FF0010C817A032962
:100BE0001DD8DFE801F01E020D11DEF80C1099434C
:100BF000CEF80C10DEF808101943CEF8081010E0FB
:100C0000DEF80810994302E0DEF808101943CEF828
:100C10000810DEF80C101943CEF80C1001E00CF1AE
:100C2000020C436843B3417A022911D001290BD049
:100C3000C9B9DEF824109943CEF82410DEF820104C
:100C40001943CEF8201010E0DEF82010994302E09E
:100C5000DEF820101943CEF82010DEF824101943D6
:100C6000CEF8241001E00CF1040C807A032821D87E
:100C7000DFE800F002140408604680BDDEF82800BA
:100C8000984302E0DEF828001843CEF82800DEF88A
:100C90002C001843CEF82C00604680BDDEF82C00F6
:100CA0009843CEF82C00DEF828001843CEF8280030
:100CB000604680BD012080BD2DE9F04F0C6894FA9C
:100CC000A4F2B2FA82F234FA02F35DD04FF00108D6
:100CD0004FF0030A19E095FAA5F6B6FA86F64B69C5
:100CE000476AB6000F25B540AF43B3403B4343626C
:100CF0004B6807686FEA0E063740A3403B4303602A
:100D00000C68013234FA02F33ED008FA02F314EA16
:100D1000030CF5D04F689CFAACF67B1E012B18D85B
:100D2000B6FA86F3D0F808905B000325D1E902BE3D
:100D300005FA03FA29EA0A090BFA03F343EA09035D
:100D4000836043684FF0030AA3430EFB04F423437C
:100D50004360B6FA86F60D69C36874000AFA04FEA9
:100D600023EA0E03A5402B43022FC360C0D15FEAE4
:100D70001C25B0D14B69076AB6000F25B540AF43BB
:100D8000B3403B430362B3E7002000F000B830BC3F
:100D9000BDE8C08F44F6D351C1F26201A0FB01014E
:100DA0004FF0FF3000EB91104EF21001CEF2000137
:100DB000486000208860052008607047B0B541F2A7
:100DC00008040146C028C4F202041ED1D4F88000F1
:100DD000C0F38110DFE800F00261505A0D4600F0C8
:100DE000A9F9216844F27472C1F30311C0F600023C
:100DF000525C2368294644F28475C3F30223C0F68B
:100E00000005EB5CD040D84000E00020B1F5407F09
:100E100018BFB0BDD4F88010C1F30121DFE801F0A4
:100E20000228172100F086F9216844F27472C1F398
:100E30000311C0F60002515C226844F28473C2F3CD
:100E40000222C0F600039A5CC840D040B0BD54F8FE
:100E5000081C490542F20041C0F2F40148BF0846AF
:100E6000B0BDD4F88810890748BF4FF40040B0BD2A
:100E7000BDE8B04000F05EB954F8080C42F2004200
:100E80004005C0F2F40202EAE070BFE7D4F888003F
:100E90004FF4004202EA8030B8E70D4600F04AF90C
:100EA0002946B3E710B530282BD00C281DD00328D5
:100EB0001CBF002010BD41F20804C4F20204D4F8A3
:100EC000800000F00300DFE800F00244483D00F03D
:100ED00031F9216844F27472C1F30311C0F60002C3
:100EE000515C2268C2F3C22224E041F20804C4F239
:100EF0000204D4F88000C0F38100DFE800F00E2A7D
:100F00002E2341F20804C4F20204D4F88000C0F396
:100F10000110DFE800F0021E221700F00BF9216833
:100F200044F27472C1F30311C0F60002515C2268EE
:100F3000C2F3022244F28473C0F600039A5CC840F4
:100F4000D04010BDD4F888004FF4004101EA803051
:100F500010BDBDE8104000F0EDB854F8080C42F2A6
:100F600000414005C0F2F40101EAE07010BD00004C
:100F70000268520644BF012070472DE9F04702681D
:100F80004FF6BF73D1E9009E22EA030CD1E9024A71
:100F90004CEA0905D1E9046701F1180845EA0E0594
:100FA00098E80C0145EA0A052E4332431A433A43B6
:100FB00042EA08020260426840F604739A4342EA39
:100FC000174200232243B3EBD42F426003D142687F
:100FD00042F480524260B8F5005FBDE8F04704BFBC
:100FE000898C01610020704740F20801C2F20001C3
:100FF0000860704770B504460068C00764D10E46AB
:10100000206846F6F311CEF6FF710840D6E9011CC0
:10101000D6E903320843B5691843104328432060DA
:10102000606820F4405040EA0C0060607069A1687C
:1010300021F440710843A06044F6FF30C4F2000080
:1010400084424FF0000013DD44F60041C4F2000179
:101050008C421BD045F20001C4F200018C4217D033
:1010600043F60001C4F201018C4215D1032016E0C1
:1010700044F20041C4F200018C420FD044F600015A
:10108000C4F200018C4207D1302008E0C02001E00A
:101090004FF44070FFF792FE20B915E00C20FFF7E7
:1010A00001FF88B1316879B1B269B2F5004F0DD155
:1010B0004A0802EB4000B0FBF1F04FF6F07101403E
:1010C000C0F34200084406E0012070BD00EB51006F
:1010D000B0FBF1F080B2E060002070BD81B04EF254
:1010E0001001CEF200010A6801300092009A28BF78
:1010F0004FF0FF300A68D20300EBE2700028F9D10C
:1011000001B0704747F60040C4F20000016889074B
:101110000ED5416841F00201416040F25041C2F2F7
:1011200000014A68824218BF7047C86800B1004792
:101130007047000041F20001C4F202018A68C2F364
:10114000810242F20040C0F2F400DFE802F00265E2
:101150000D120A68086812071ED4000728D4D1F8B7
:101160009400C0F3032031E041F20020C0F27A0085
:101170007047CA6802F00302032A14D0022A39D049
:10118000012A0A680868120715D4000725D4D1F887
:101190009400C0F3032027E0000713D4D1F8940093
:1011A00000F4706011E041F20020C0F27A0021E00A
:1011B000086800200AE0000712D4D1F8940000F477
:1011C000706010E0086800F0F000000944F28C71D3
:1011D000C0F6000151F8200070470868002003E0C5
:1011E000086800F0F000000944F28C72C0F60002BA
:1011F00052F82000CA68CB68C2F302120132B0FB79
:10120000F2F0C968C3F306225043C1F341610222E0
:1012100002EB4101B0FBF1F0704700004EF6885040
:10122000CEF20000016841F47001016070470000D7
:1012300044F20040C4F20000C169890644BF01685D
:101240005FEA816100D4704740F26042C2F200025E
:10125000818C5368834218BF70479268002AF2D08D
:10126000C8B2104710B540F20C00C2F2000000698D
:1012700080470146407940F22C44C2F2000416280F
:1012800021600ED001F0F8FF40F21841C2F20001D7
:101290004FF40073086001F1080221F8043F01F0E7
:1012A00079FC2068807916280ED001F0E5FF40F225
:1012B0000C41C2F200014FF40073086001F1080212
:1012C00021F8043F01F066FC20680079162808BF69
:1012D00010BD01F0D1FF40F22401C2F2000140F242
:1012E0000123086001F1080221F8043FBDE8104025
:1012F00001F050BC2DE9F04381B0032001F0BCFFA8
:1013000040F2B404C2F2000460630025A046052048
:1013100028F8385FE56301F0AFFF20624FF480707A
:10132000264626F8240F42F28D70C0F60000C4E96C
:101330000A05072001F0A0FFA06040F2012927461E
:10134000102027F80C9F01F097FF43F20001606125
:10135000C4F20101606B2546216004F1440241465C
:1013600025F8189F01F0A8FA206A04F130023146EE
:1013700001F0A2FAA06804F11002394601F00AFC5B
:10138000606904F11C02294601F004FC206B01F0A5
:1013900005FA211D204601F09DFD204601B0BDE863
:1013A000F083000040F22C40C2F200000068807917
:1013B000162808BF704740F20C40C2F20000806857
:1013C000002101F061BC000040F22C40C2F200009C
:1013D00000688079162808BF704740F20C40C2F2BE
:1013E00000008068012101F04FBC000070B582B0A0
:1013F000044602F079FAD8B3032814D144F6383001
:10140000C0F6000000F0D2FF44F6FC20C0F6000059
:1014100000F0CCFF44F6043544F63820C0F6000551
:10142000C0F6000011E044F64831C0F60001054660
:10143000084600F0BBFF44F6EE20C0F6000000F0C6
:10144000B5FF44F6AC10C0F6000044F6183144F67F
:10145000B132C0F60001C0F600024FF4A37300954C
:1014600000F0A4FF44F63330C0F6000000F09EFF09
:10147000204602F08FF9D8B3032814D144F638304F
:10148000C0F6000000F092FF44F6FC20C0F6000019
:1014900000F08CFF44F6043544F63820C0F6000511
:1014A000C0F6000011E044F64831C0F600010546E0
:1014B000084600F07BFF44F6EE20C0F6000000F086
:1014C00075FF44F6AC10C0F6000044F6183144F63F
:1014D000B132C0F60001C0F600024FF4A4730095CB
:1014E00000F064FF44F63330C0F6000000F05EFF09
:1014F00040F20C05C2F20005A8688047014620466C
:1015000002F080FB002847D0032820D144F6383071
:10151000C0F6000000F04AFF44F6FC20C0F60000D0
:1015200000F044FF44F6043CC0F6000C44F63820BA
:1015300044F6183144F6B132C0F60000C0F600019E
:10154000C0F6000240F24B13CDF800C01CE044F698
:101550004831C0F600010646084600F027FF44F671
:10156000EE20C0F6000000F021FF44F6AC1044F677
:10157000183144F6B132C0F60000C0F60001C0F6E2
:10158000000240F24B13009600F010FF44F6333097
:10159000C0F6000000F00AFF686880470146204658
:1015A00002F0D2F9D8B3032814D144F63830C0F68B
:1015B000000000F0FBFE44F6FC20C0F6000000F046
:1015C000F5FE44F6043644F63820C0F60006C0F6B0
:1015D000000011E044F64831C0F600010646084616
:1015E00000F0E4FE44F6EE20C0F6000000F0DEFE5F
:1015F00044F6AC10C0F6000044F6183144F6B1329F
:10160000C0F60001C0F600024FF4A773009600F088
:10161000CDFE44F63330C0F6000000F0C7FEE868A7
:1016200080470178002974D041784268204602F052
:101630009FF9002846D003281FD144F63830C0F661
:10164000000000F0B3FE44F6FC20C0F6000000F0FD
:10165000ADFE44F60436C0F6000644F6382044F6E3
:10166000183144F6B132C0F60000C0F60001C0F6F1
:1016700000024FF4AA7300961CE044F64831C0F60D
:1016800000010546084600F091FE44F6EE20C0F643
:10169000000000F08BFE44F6AC1044F6183144F61E
:1016A000B132C0F60000C0F60001C0F600024FF4EF
:1016B000AA73009500F07AFE44F63330C0F60000BD
:1016C00000F074FE20467F2101F0E0FE08B30328FD
:1016D00021D144F63830C0F6000000F067FE44F631
:1016E000FC20C0F6000000F061FE44F60436C0F6AF
:1016F000000644F6382044F6183144F6B132C0F6FC
:101700000000C0F60001C0F6000240F2551300963A
:101710001EE002B070BD44F64831C0F60001044638
:10172000084600F043FE44F6EE20C0F6000000F04C
:101730003DFE44F6AC1044F6183144F6B132C0F622
:101740000000C0F60001C0F6000240F255130094FC
:1017500000F02CFE44F63330C0F6000002B0BDE8C5
:10176000704000F023BE000040F20841C2F20001C8
:101770000A78002A08BF704710B582B000220A70AC
:101780000DF10601044601F00DFFBDF80600C0078B
:1017900018BF00F0F9FFBDF80600800741D52046CC
:1017A00001F0F6FFD8B3032814D144F63830C0F660
:1017B000000000F0FBFD44F6FC20C0F6000000F045
:1017C000F5FD44F6043444F63820C0F60004C0F6B3
:1017D000000011E044F64831C0F600010446084616
:1017E00000F0E4FD44F6EE20C0F6000000F0DEFD5F
:1017F00044F6AC10C0F6000044F6183144F65032FE
:10180000C0F60001C0F600024FF4FF73009400F030
:10181000CDFD44F63330C0F6000000F0C7FD00F007
:101820007FFFBDF80600400702D400F023FF01E06F
:1018300000F018FFBDF8060001063AD5C0051CD41B
:1018400044F63830C0F6000000F0B0FD44F6FC204D
:10185000C0F6000000F0AAFD40F20500C2F2000050
:10186000017819A000F0A2FD44F63330C0F6000064
:1018700000F09CFD00F0DCFE1BE044F64030C0F6BA
:10188000000000F093FD44F6F520C0F6000000F0E3
:101890008DFD40F20500C2F20000017807A000F0C3
:1018A00085FD44F63330C0F6000000F07FFD00F007
:1018B0007DFE02B0BDE81040704700BF31203A20E5
:1018C0002564200A0D000000303A202564200A0D0E
:1018D00000000000F0B581B044F64034C0F60004CA
:1018E000204600F063FD44F6F525C0F600052846C5
:1018F00000F05CFD8FA000F059FD44F63336C0F6D1
:101900000006304600F052FD204600F04FFD28460C
:1019100000F04CFD012001F0BFFF014644F6862097
:10192000C0F6000000F042FD304600F03FFD2046CA
:1019300000F03CFD284600F039FD44F6D2204AF282
:101940000011C0F60000C3F2BC3100F02FFD30469C
:1019500000F02CFD204600F029FD284600F026FD71
:1019600044F61B20C0F600000E2100F01FFD30469B
:1019700000F01CFD204600F019FD284600F016FD81
:10198000202001F0D9FD014644F69F20C0F600005A
:1019900000F00CFD304600F009FD204600F006FD89
:1019A000284600F003FD44F6D410C0F6000067A1FD
:1019B00000F0FCFC304600F0F9FC204600F0F6FC9C
:1019C000284600F0F3FC44F6EC27C0F60007384642
:1019D00000F0ECFC304600F0E9FC204600F0E6FCAC
:1019E000284600F0E3FC44F67610C0F6000000F054
:1019F000DDFC304600F0DAFC204600F0D7FC28463B
:101A000000F0D4FC40F20500C2F20000007801F0C2
:101A100027FF014644F6B820C0F6000000F0C6FCDF
:101A2000304600F0C3FC204600F0C0FC284600F021
:101A3000BDFC042001F0B6FE014644F65220C0F67B
:101A4000000000F0B3FC304600F0B0FC204600F08F
:101A5000ADFC284600F0AAFC012001F0C3FE0146BF
:101A600044F66C20C0F6000000F0A0FC304600F008
:101A70009DFC204600F09AFC284600F097FC384672
:101A800000F094FC304600F091FC204600F08EFC03
:101A9000284600F08BFC44F69310C0F6000000F0DE
:101AA00085FC304600F082FC204600F07FFC284692
:101AB00000F07CFC26A0102100F078FC304600F0FD
:101AC00075FC204600F072FC284600F06FFC0020F8
:101AD00001F09CFE014627A000F068FC304600F0B3
:101AE00065FC204600F062FC284600F05FFC28A060
:101AF0007C2100F05BFC304600F058FC204600F0F2
:101B000055FC284600F052FC384600F04FFC3046A9
:101B100000F04CFC204600F049FC284600F046FC52
:101B200022A0122100F042FC304601B0BDE8F04096
:101B300000F03CBC436F6D6D6F6E205246207061AB
:101B400072616D65746572733A0A00006465000025
:101B5000202020507265616D626C65206C656E6737
:101B6000746820203D2025642073796D626F6C2895
:101B700073290A00202020486561646572206D6F1A
:101B800064652020202020203D2025730A000000CD
:101B90002020205061796C6F6164206C656E6774E1
:101BA000682020203D2025640A0000004C6F52610F
:101BB0002073796E6320776F7264203D2030782522
:101BC0003032780A0000000080B500F0BBFB44F61C
:101BD0004030C0F6000000F0E9FB44F6F520C0F606
:101BE000000000F0E3FB44F6EC20C0F6000000F03B
:101BF000DDFB44F63330C0F60000BDE8804000F065
:101C0000D5BB0000F0B581B0044640F20C00C2F232
:101C100000004AF200160268C3F2BC3630460E21BC
:101C2000904748B305462046002102F063F800289B
:101C300060D0032839D144F63830C0F6000000F0F7
:101C4000B5FB44F6FC20C0F6000000F0AFFB44F604
:101C5000043CC0F6000C44F6382044F6183144F633
:101C60009332C0F60000C0F60001C0F6000240F258
:101C70006513CDF800C035E044F63830C0F60000FA
:101C800000F094FB44F6FC20C0F6000000F08EFB50
:101C900044F6F210C0F6000000F088FB44F6333042
:101CA000C0F6000000F082FBFEE744F64831C0F6C3
:101CB00000010746084600F079FB44F6EE20C0F626
:101CC000000000F073FB44F6AC1044F6183144F603
:101CD0009332C0F60000C0F60001C0F6000240F2E8
:101CE0006513009700F062FB44F63330C0F6000045
:101CF00000F05CFB2046012101F070FFD8B30328FF
:101D000014D144F63830C0F6000000F04FFB44F622
:101D1000FC20C0F6000000F049FB44F6043744F60E
:101D20003820C0F60007C0F6000011E044F6483144
:101D3000C0F600010746084600F038FB44F6EE20E6
:101D4000C0F6000000F032FB44F6AC10C0F6000014
:101D500044F6183144F69332C0F60001C0F6000292
:101D60004FF4B373009700F021FB44F63330C0F614
:101D7000000000F01BFB2046314601F057FF002811
:101D800046D003281FD144F63830C0F6000000F0DA
:101D90000DFB44F6FC20C0F6000000F007FB44F603
:101DA0000437C0F6000744F6382044F6183144F6EC
:101DB0009332C0F60000C0F60001C0F6000240F207
:101DC000671300971CE044F64831C0F60001064650
:101DD000084600F0EBFA44F6EE20C0F6000000F0F2
:101DE000E5FA44F6AC1044F6183144F69332C0F6E6
:101DF0000000C0F60001C0F6000240F26713009632
:101E000000F0D4FA44F63330C0F6000000F0CEFA09
:101E1000691C204601F0CEFE002846D003281FD1C1
:101E200044F63830C0F6000000F0C0FA44F6FC205A
:101E3000C0F6000000F0BAFA44F60437C0F6000716
:101E400044F6382044F6183144F69332C0F60000C8
:101E5000C0F60001C0F6000240F2691300971CE0D2
:101E600044F64831C0F600010646084600F09EFAE6
:101E700044F6EE20C0F6000000F098FA44F6AC10EC
:101E800044F6183144F69332C0F60000C0F6000163
:101E9000C0F6000240F26913009600F087FA44F69B
:101EA0003330C0F6000000F081FA95F900102046AA
:101EB000022201F033FF002846D003281FD144F648
:101EC0003830C0F6000000F071FA44F6FC20C0F68D
:101ED000000000F06BFA44F60437C0F6000744F641
:101EE000382044F6183144F69332C0F60000C0F6AC
:101EF0000001C0F600024FF4B57300971CE044F6F1
:101F00004831C0F600010546084600F04FFA44F695
:101F1000EE20C0F6000000F049FA44F6AC1044F69A
:101F2000183144F69332C0F60000C0F60001C0F646
:101F300000024FF4B573009500F038FA44F63330E0
:101F4000C0F6000000F032FA2046202101F0BEFE6B
:101F5000002846D003281FD144F63830C0F60000D0
:101F600000F024FA44F6FC20C0F6000000F01EFA4F
:101F700044F60437C0F6000744F6382044F618311A
:101F800044F69332C0F60000C0F60001C0F600022D
:101F90004FF4B67300971CE044F64831C0F60001D8
:101FA0000546084600F002FA44F6EE20C0F60000AE
:101FB00000F0FCF944F6AC1044F6183144F69332C4
:101FC000C0F60000C0F60001C0F600024FF4B67380
:101FD000009500F0EBF944F63330C0F6000000F055
:101FE000E5F920460021002501F064FA002846D0DA
:101FF00003281FD144F63830C0F6000000F0D6F9AF
:1020000044F6FC20C0F6000000F0D0F944F6043796
:10201000C0F6000744F6382044F6183144F69332EF
:10202000C0F60000C0F60001C0F6000240F26D13D9
:1020300000971CE044F64831C0F600010646084609
:1020400000F0B4F944F6EE20C0F6000000F0AEF95E
:1020500044F6AC1044F6183144F69332C0F6000052
:10206000C0F60001C0F6000240F26D13009600F0C9
:102070009DF944F63330C0F6000000F097F940F2C5
:102080000500C2F20000007840F224410B3802281B
:10209000C2F20001204638BF0125CD7001F0AEFC30
:1020A000002846D003281FD144F63830C0F600007F
:1020B00000F07CF944F6FC20C0F6000000F076F950
:1020C00044F60437C0F6000744F6382044F61831C9
:1020D00044F69332C0F60000C0F60001C0F60002DC
:1020E0004FF4B97300971CE044F64831C0F6000184
:1020F0000546084600F05AF944F6EE20C0F6000006
:1021000000F054F944F6AC1044F6183144F693321A
:10211000C0F60000C0F60001C0F600024FF4B9732B
:10212000009500F043F944F63330C0F6000000F0AB
:102130003DF944F66C01C0F60001204601F0AEFC0A
:10214000002846D003281FD144F63830C0F60000DE
:1021500000F02CF944F6FC20C0F6000000F026F94F
:1021600044F60437C0F6000744F6382044F6183128
:1021700044F69332C0F60000C0F60001C0F600023B
:1021800040F2731300971CE044F64831C0F600019A
:102190000546084600F00AF944F6EE20C0F60000B5
:1021A00000F004F944F6AC1044F6183144F69332CA
:1021B000C0F60000C0F60001C0F6000240F2731342
:1021C000009500F0F3F844F63330C0F6000000F05C
:1021D000EDF82046122101F0AFFC08B3032821D10D
:1021E00044F63830C0F6000000F0E0F844F6FC2079
:1021F000C0F6000000F0DAF844F60437C0F6000735
:1022000044F6382044F6183144F69332C0F6000004
:10221000C0F60001C0F600024FF4BA7300971EE04A
:1022200001B0F0BD44F64831C0F60001044608464E
:1022300000F0BCF844F6EE20C0F6000000F0B6F85E
:1022400044F6AC1044F6183144F69332C0F6000060
:10225000C0F60001C0F600024FF4BA73009400F01B
:10226000A5F844F63330C0F6000001B0BDE8F040F8
:1022700000F09CB82DE9F04182B040F22848C2F24B
:1022800000080E46D8F800100746481CC8F80000A1
:102290000DF1060138461D46144601F0F7F99DF888
:1022A0000630AB421CD944F63830C0F6000000F0CE
:1022B0007DF844F6FC20C0F6000000F077F89DF8A9
:1022C000061044F62810C0F600002A4600F06EF80A
:1022D00044F63330C0F6000000F068F8002006E055
:1022E00038460021324601F0E9FA9DF806002070D8
:1022F00044F64030C0F6000000F058F844F6F520EF
:10230000C0F6000000F052F8D8F8001005A000F068
:102310004DF844F63330C0F6000000F047F802B044
:10232000BDE8F0815265636569766564202070615F
:10233000636B6574206E756D626572203A2025644A
:10234000200A0D0080B507A000F030F807A000F0CB
:102350002DF808A00CA100F029F80DA0BDE88040E0
:1023600000F024B81B5B303B33326D00494E464FC2
:102370003A20000053444B2076657273696F6E3AC1
:102380002025730A0000000076322E322E30000025
:102390001B5B306D0000000044F66C0040F22441ED
:1023A000C0F60000C2F2000101F02EB983B080B582
:1023B00081B00DF10C0C8CE80E0003A9009101F026
:1023C0001DFD01B0BDE8804003B0704770B582B01C
:1023D00040F20012C2F200020023136040F2050630
:1023E00040F22442C2F20006C2F2000230701070C5
:1023F0004FF48270A2F8010040F22000C2F2000007
:1024000040F2AC040170C2F2000441F2026040F2FA
:10241000FC0520800A20C2F20005A0702868D37055
:10242000E1706360FFF7EEFB3078073804281CD8B2
:10243000DFE800F003030F1509000A20A07041F245
:102440000260208029E00A20A07041F6041020805C
:1024500023E00A20A07041F2047020801DE00A20D1
:10246000A07041F60400208017E044F64830C0F622
:102470000000FFF79BFF44F6EE20C0F60000FFF7D8
:1024800095FF44F6C930C0F60000FFF78FFF44F611
:102490003330C0F60000FFF789FFE078012804D14F
:1024A0004FF47A7001F046F86060286840F2AC01A1
:1024B000C2F2000101F02CFA002844D003281ED1FA
:1024C00044F63830C0F60000FFF770FF44F6FC20F9
:1024D000C0F60000FFF76AFF44F60436C0F60006B7
:1024E00044F6382044F60B4144F63542C0F600006D
:1024F000C0F60001C0F60002B82300961BE044F6C7
:102500004831C0F6000104460846FFF74FFF44F685
:10251000EE20C0F60000FFF749FF44F6AC1044F689
:102520000B4144F63542C0F60000C0F60001C0F68B
:102530000002B8230094FFF739FF44F63330C0F6A9
:102540000000FFF733FF02B0BDE8704000F0CABEE4
:1025500082B000F02DFC01F03BFCFEF783FEFEF79D
:10256000C9FE40F2FC04C2F200042060FEF73EFF08
:1025700020684FF0000C44F2FF3140F2E3320023B8
:10258000CDF800C001F010FA206844F2FF3100F0ED
:10259000BBFF07200121FFF719FFFFF715FBFFF72E
:1025A00099F900BF2068FFF7DFF8FBE710B540F2AC
:1025B000001140F2AC04C2F20001C2F200040A6849
:1025C000E078013210280A6002D0012804D038B91E
:1025D000BDE8104000F086BEBDE81040FEF7F4BE36
:1025E00044F63830C0F60000FFF7E0FE44F6FC2069
:1025F000C0F60000FFF7DAFEE17805A0FFF7D6FE8F
:1026000044F63330C0F60000BDE81040FFF7CEBE00
:10261000556E6B6E6F776E20434144206578697408
:10262000206D6F64653A203078253032780A0000DA
:1026300040F20011C2F200010868062840F20400CE
:10264000C2F2000004D30722027000220A6005E0F3
:1026500001780B2914BF0131072101700078012195
:10266000FFF7B4BE40F20010C2F200000168013171
:102670000160704710B582B040F2FC00C2F2000069
:10268000006801F033F908B3032821D144F638304B
:10269000C0F60000FFF78AFE44F6FC20C0F60000FA
:1026A000FFF784FE44F6043CC0F6000C44F63820E4
:1026B00044F60B4144F61E42C0F60000C0F600018D
:1026C000C0F60002E823CDF800C01DE002B010BD46
:1026D00044F64831C0F6000104460846FFF766FE9E
:1026E00044F6EE20C0F60000FFF760FE44F6AC10A2
:1026F00044F60B4144F61E42C0F60000C0F600014D
:10270000C0F60002E8230094FFF750FE44F6333091
:10271000C0F6000002B0BDE81040FFF747BE000061
:10272000B0B582B040F23004C2F2000420467C21F1
:10273000FDF75FFDFEF736FE40F2FC05C2F2000534
:1027400028680DF1070221467C23FFF793FDFEF771
:102750003BFE2C68FFF720FE0546FDF731FD44F6F1
:10276000D351C1F2620150FB01F14A1102EBD17168
:102770004FF4FA7201FB1200284400F5167120464E
:1027800001F086FA02B0B0BD7047000040F2084088
:10279000C2F20000012101707047000040F20411F4
:1027A0000023C2F2000100BF1A460F2B04D8531CAD
:1027B000814201F13001F7D10F2A03D8017B09B121
:1027C000017C09B10220704710B5D0E908E240F25F
:1027D000080CD3B2C4F2010C140C5CF8231094FA68
:1027E000A4F4B4FA84F421EA1241B2F5803F38BF70
:1027F00020240EFA04F211434CF82310C26A110689
:102800004EF20011CEF2000108D402F01F030124A1
:1028100004FA03F3C2F3411241F82230C26A4EF6C1
:10282000145402F07F03194402F00F03CEF20004A7
:102830002344120658BF01F540730021197001218D
:102840000174002010BD000040F204124FF0000C93
:10285000C2F200026346BCF10F0F05D803F1010C70
:10286000824202F13002F5D10F2B84BF0220704763
:1028700010B5D0E901CE9EFAAEF0B0FA80F0DCF8E7
:1028800000304200032000FA02F42340D340012B21
:1028900004D0002B18BF10BD102000E014205CF8FD
:1028A000000000EA0E00A0EB0E00B0FA80F0400934
:1028B0000870002010BD00002DE9F04389B040F2FF
:1028C000041CC2F2000C03460CF10407002501268B
:1028D0000AE000BF0F2D05F101054FF0000638BFDB
:1028E00001263037102D0BD017F8044C002CF1D0F6
:1028F0003C6818688442EDD178685C68A042E9D1F0
:10290000F00701D0012022E0002700BF1CF80700DB
:1029100028B13037B7F5407FF8D1002401E00CEB47
:1029200007044FF0010094B10E46D3E90013154699
:102930000022CDE90520084622702273C4E9011364
:10294000CDE90332CDE9072200F0BEF918B1C0B2DB
:1029500009B0BDE8F0830746606803A9FEF7ACF94B
:102960000028CFD196F80190AC46B9F1000F384657
:1029700000F00A81A3683146FF2B4FF0020000F3FC
:102980004F805E1E3F2E00F27F804FF4702E4FF07E
:102990000608DFE816F0BB004000CD009600CD0031
:1029A000CD00CD009100CD00CD00CD00CD00CD00FB
:1029B000CD00CD009B00CD00CD00CD00CD00CD00E1
:1029C000CD00CD00CD00CD00CD00CD00CD00CD009F
:1029D000CD00CD008900CD00CD00CD00CD00CD00D3
:1029E000CD00CD00CD00CD00CD00CD00CD00CD007F
:1029F000CD00CD00CD00CD00CD00CD00CD00CD006F
:102A0000CD00CD00CD00CD00CD00CD00CD00CD005E
:102A1000CD00CD0082004FF4700E4FF0070875E036
:102A2000B3F5805F0FDAB3F5806F1BDAB3F5807F03
:102A300053D0B3F5007F7BD140F2020E4FF0170860
:102A4000C0F2F00E62E0B3F5804F15DAB3F5805FA7
:102A50004BD0B3F5005F6BD10220C0F2F00000F163
:102A6000010E51E045D0B3F5006F61D10120CFF2E6
:102A7000000000F1010E47E041D0B3F5004F57D1FF
:102A80000120CFF200003DE0802B51D140F2010E39
:102A90004FF01708CFF2000E38E040F2010E4FF071
:102AA0001708C0F6007E31E00120C0F20F0000F5EB
:102AB000610E4FF0170829E04FF0704E4FF00908F3
:102AC00024E04FF0706E4FF008081FE040F2010E56
:102AD0004FF00A08C0F20F0E18E00120C0F20F00FC
:102AE00000F1010E4FF0170810E00120C0F20F00B6
:102AF00008E00120C0F6007000F1010E04E00120A2
:102B0000C0F6007000F1020E4FF02808606800F176
:102B100038424FEAB227072F01D2002008E041F6E1
:102B20000042C4F60002801A18BF012040000727A7
:102B30004FF0000628BB0020B9F1030F88BF012029
:102B40004FEA40001DD8D1E900268968C4E905266E
:102B500004F11C0282E8824069464FF0000C012615
:102B60000746084684F810C0C4E90A38CDE9003C9D
:102B7000ADF808608DF80A90FDF7E6FF3846AC46E0
:102B80002673002E3FF4E3AE01212170CCF8004003
:102B9000DDE6000070B586B040F2041CC2F2000C05
:102BA0000CF10405002301240AE000BF0F2B03F100
:102BB00001034FF0000438BF01243035102B0DD035
:102BC00015F8046C002EF1D0D5F800E00668B64583
:102BD000ECD1D5F804E04668B645E7D1E30701D06B
:102BE00001234DE0002300BF1CF803602EB13033F9
:102BF000B3F5407FF8D1002401E00CEB03044FF063
:102C00000103ECB31546D0E900020E460021217005
:102C10002173C4E90102CDE90023CDE90211CDE918
:102C2000041100F051F8034650BB307840F2041113
:102C30000023C2F2000100BF1A460F2B04D8531C18
:102C4000A14201F13001F7D10F2A04D8012806D0A2
:102C500008B9282004E00223002038B910E0182029
:102C6000D4E9011200230A50012048B16068694686
:102C7000FEF722F84FF0010310B9237000232C60F7
:102C8000184606B070BD000040F204124FF0000C70
:102C9000C2F200026346BCF10F0F05D803F1010C2C
:102CA000824202F13002F5D10F2B04D8012904D061
:102CB00009B9282102E0022070471821D0E9010259
:102CC000425000207047000000F138404FEAB02029
:102CD000072884BF0220704781B0DFE800F004407D
:102CE0001C28104C583441F24C00C4F20200016818
:102CF00041F001010160006800F0010052E041F282
:102D00004C00C4F20200016841F01001016000684B
:102D100000F0100046E041F24C00C4F202000168ED
:102D200041F004010160006800F004003AE041F263
:102D30004C00C4F20200016841F008010160006823
:102D400000F008002EE041F24C00C4F202000168DD
:102D500041F080010160006800F0800022E041F253
:102D60004C00C4F20200016841F0020101600068F9
:102D700000F0020016E041F24C00C4F202000168CB
:102D800041F020010160006800F020000AE041F2FB
:102D90004C00C4F20200016841F04001016000688B
:102DA00000F0400000900098002001B07047000043
:102DB000B0B582B042F20000C4F202000168042201
:102DC00062F30201016000BF016801F007010429FC
:102DD000FAD147F20000C4F200000168012241F27A
:102DE000000562F34A21C4F202050160286840F43C
:102DF0008070286028684005FCD5D5F8940040F024
:102E00000100C5F8940000BFD5F894008007FBD5F9
:102E10006868102161F31C606860E86848F28C0102
:102E2000CFF6FF11084000F60220E860286840F065
:102E300080702860E86840F08070E8602868800151
:102E4000FCD5E86848F2FF0140F0020020F0710074
:102E5000E8602869CFF69F71084040F4001040F404
:102E600040602861286840F080602860286940F44C
:102E70008010286128680001FCD5A86840F0030094
:102E8000A86000BFA86800F00C000C28FAD1A86860
:102E90004BF2004420F0F000A860A868C0F2C444DF
:102EA00020F4E060A860A86820F46050A860204684
:102EB000FDF770FF2046FEF797F8286E40F00100FE
:102EC0002866286E00F0010001900198002002B0F1
:102ED000B0BD000070B58AB040F230430022C2F2AB
:102EE000000300BF9E5C2EB10832202AFAD10025D3
:102EF0001DB976E09D18002D73D0006843F600429E
:102F0000C4F20002904268602BD043F20002C4F287
:102F10000102904268D141F24C00C4F202000E4618
:102F200041690DF1040C41F480514161416901F4A2
:102F3000805100910099016841F001010160006831
:102F400000F0010000903D48009900903BA0041D56
:102F50001ECC40698CE81E00059069464FF09040F9
:102F600026E041F24C00C4F202000E46C1680DF1A9
:102F7000040C41F40041C160C16801F400410091BA
:102F80000099016841F004010160006800F004004C
:102F9000009024480099009022A0041D40691ECC96
:102FA000059040F600008CE81E00C4F6000069465B
:102FB000FDF782FE6C4620462821FDF71AF94FF4F2
:102FC000827001904FF4E06002904FF40070059021
:102FD000182006900721686809912146FDF7C8FF6F
:102FE00028B101200AB070BD02200AB070BD686827
:102FF000416841F480514160416821F01001416015
:10300000416821F008014160016841F04001016020
:1030100001684906FCD501202870356000200AB0FF
:1030200070BD00BF001C0000020000000300000093
:10303000000000000000000006000000E0000000AA
:10304000020000000300000000000000000000007B
:1030500005000000F0B540F230460024C2F2000640
:103060009C4600BF2546032C04D86C1C864206F102
:103070000806F7D1032D84BF0220F0BD0778E7B31F
:10308000002B18BF012336D00125E64664460CE02C
:103090001FFA8EF3002BA5B24EEA040618BF0123D7
:1030A000002D18BF0125360425D04668DB07B76818
:1030B0000FD007F4C053B3F5C05F0AD029B11FFA8F
:1030C0008EF3ACEB0303CB5C00E00023AEF1010E0A
:1030D000337343689E6816F4C06618BF01263540F6
:1030E000012DD5D11B7B002A1EBFA5B2ACEB050577
:1030F0005355013CCCE70020F0BD0320F0BD00009B
:103100002DE9F04188B040F26046C2F200063778FF
:103110003446002F18BF002458D19046026844F26C
:103120000040C4F2000082423BD10422002F08BFBD
:10313000321D106041F24C00C4F20200C2680DF171
:10314000080E42F40032C260C26802F400320192FA
:10315000019A026842F001020260006800F001007A
:1031600001903148019A01902FA000F1040C9CE8D5
:103170002C1040698EE82C1001AA06904FF0904068
:103180000D461146FDF798FD4EF22640CEF20000A6
:10319000002202704EF20410CEF2000040220260C3
:1031A0002946D1E900010C2201900020CDE902005E
:1031B0000490CDE905200790002F18BF06467068DF
:1031C000B16001A9FDF716FF012803D1012008B065
:1031D000BDE8F08170684546416821F49041416046
:1031E000816821F02A018160016841F001010160DC
:1031F0000168C907FCD0018B41F008010183018BF4
:1032000041F01001018300BF50E8001F41F0200190
:1032100040E80012002AF7D1012020702C60002025
:1032200008B0BDE8F08100BF0C0000000200000003
:103230000300000000000000000000000700000084
:10324000BAB180B5D0F804E0944600BFDEF81C3077
:103250001B06FBD5A2EB0C03CB5CBCF1010CAEF85A
:103260002830F3D1406800BFC1694906FCD5BDE8EC
:10327000804000207047000044F2BC71C0F600019D
:1032800001EBC0007047000042F68062CFF20F727F
:10329000024401F1110044F67203C0B201EB810156
:1032A000C0F60003194421284FF0000038BF01F197
:1032B000550049F68161C3F2470100238A4228BFC5
:1032C0001846704744F61710C0F60000704700001B
:1032D0000120704744F62010C0F60000704700003F
:1032E0000120704710B582B04FF4FA70FDF7F6FE7A
:1032F00040F2FC00C2F20000006800F0F7FA10B3E0
:10330000032822D144F63830C0F60000FFF74EF80B
:1033100044F6FC20C0F60000FFF748F844F6043CF1
:10332000C0F6000C44F6382044F60B4144F63E4209
:10333000C0F60000C0F60001C0F6000240F23513EE
:10334000CDF800C01EE002B010BD44F64831C0F612
:10335000000104460846FFF729F844F6EE20C0F6BF
:103360000000FFF723F844F6AC1044F60B4144F696
:103370003E42C0F60000C0F60001C0F6000240F276
:1033800035130094FFF712F844F63330C0F600000E
:1033900002B0BDE81040FFF709B800002DE9F04F7A
:1033A00085B0804600208DF80C00CDE9010040F288
:1033B0001D20C0F29F0001AF91468A460490092566
:1033C00004A9404604223B46009500F079F910B16B
:1033D00005B000F058B89DF804C0B9F1000FCB4615
:1033E00018BF4FF0010B2AD07A1C0023614614E06D
:1033F00003293ED83AF8137002EB41053E0A02F861
:10340000116001316F708DF8041001334B454FF09E
:10341000000B38BF4FF0010B11D00029E8D03AF86B
:103420001370002402EB440612F81450767846EA32
:103430000526BE42E9D001348C42F3D3D8E79DF88B
:10344000041061450ED040F20D20ADF810009F2011
:103450008DF81200092704A901AB4046032200970A
:1034600000F06AF95FEACB7118BF032005B000F0E5
:103470000AB8A1EB0C01B1FA81F1490941EA0B014B
:10348000C907E0D0EEE730BCBDE8C08F80B582B0A0
:1034900089228DF806208DF807104FF0000C0DF1F1
:1034A000060102220023CDF800C000F045F902B069
:1034B00080BD000080B584B081B196218DF80910DF
:1034C00040F60D01ADF80A10AC218DF80C104FF04C
:1034D000010C0DF10A010DF109030EE094218DF8A4
:1034E000081040F60D01ADF80D10AC218DF80F104D
:1034F0004FF0010C0DF10D0102AB0322CDF800C01D
:1035000000F01AF904B080BD80B582B002228DF8B7
:1035100005200A0A8DF806208DF807104FF0000CE0
:103520000DF1050103220023CDF800C000F004F9DD
:1035300002B080BD80017047202804BF06A07047FC
:10354000402804BF0BA0704730280EBF0EA045F2E4
:10355000B850C0F6000070475358313236585F46B5
:10356000414C4C4241434B5F53544442595F524398
:10357000000000005358313236585F46414C4C42EF
:1035800041434B5F465300005358313236585F4633
:10359000414C4C4241434B5F53544442595F584F56
:1035A00053430000F0B583B0054612200F46ADF836
:1035B0000600002602240DF1060101AB2846022276
:1035C000ADF80460009400F07BF8BDF8041000280A
:1035D00009BA08BF0E0C11D186B102208DF809007E
:1035E000300A8DF80A0000240DF109012846032253
:1035F00000238DF80B60009400F09EF817B10028AE
:1036000008BF3E8003B0F0BDB0B5C37891F800C0EC
:1036100082780579DB00A3EB8C03012A18BF1433F1
:10362000002D18BF1033BCF1070F4FEA8C0202D2F5
:103630004FF00E0E06E0CD7808334FF00C0E002D43
:1036400018BF083A4D788C7801880A2D06D844F2C4
:103650004870C0F6000050F8250000E0002023EA82
:10366000E3731344013B93FBF2F2231D714402FB0D
:103670000311ACF102028900013191404FF47A72DA
:1036800001FB02010139B1FBF0F0B0BDB0B582B071
:103690000D461321ADF806100021ADF804100224E8
:1036A0000DF1060101AB0222009400F009F808B107
:1036B00002B0B0BDBDF80410298002B0B0BD00005A
:1036C0002DE9F04381B0DDF82080994617460E467B
:1036D00004460DF1030500BF606C2946FFF7B4F8FE
:1036E0009DF803000128F7D020690021FFF7CCFAEC
:1036F0006068314600223B46FFF7ACFC6068002161
:103700004A464346FFF7A6FC20690121FFF7BCFAB1
:10371000002001B0BDE8F08310B50446C069002167
:10372000FFF7B2FA0120FDF7D9FCE0690121FFF7AC
:10373000ABFA002010BD00002DE9F04381B0DDF8A8
:103740002080994617460E4604460DF1030500BF3A
:10375000606C2946FFF778F89DF803000128F7D040
:1037600020690021FFF790FA6068314600223B464D
:10377000FFF770FC6068494600224346FFF76AFC89
:1037800020690121FFF780FA002001B0BDE8F08335
:1037900000F0DABA44F24271C0F600010322FFF7EA
:1037A000FDBD00000A2899BF03A151F8200045F291
:1037B000B850C0F6000070478D4F0008214F000838
:1037C0007E4E0008D24E0008344F00085A4E0008C2
:1037D000554D0008B8550008234E0008474E000814
:1037E000914E00080138C0B2032899BF03A151F8D7
:1037F000200045F2B850C0F600007047574F00084F
:103800007A4F0008CE4F0008F14F000845F2B85239
:1038100005A1C0F60002012808BF0A4609A1002838
:1038200018BF1146084670475358313236585F4C1E
:103830004F52415F504B545F494D504C494349549E
:10384000000000005358313236585F4C4F52415FF0
:10385000504B545F4558504C4943495400000000B8
:103860000538C0B2072899BF03A151F8200045F2DE
:10387000B850C0F600007047474F00086A4F000874
:10388000BE4F0008E14F000804500008364E000803
:103890006D4E0008C14E0008032899BF03A151F8DE
:1038A000200045F2B850C0F6000070472F520008C3
:1038B00014500008445200080F53000880B582B02D
:1038C0009C4613461E228DF8061000218DF8052017
:1038D0008DF807100DF105010322CDF800C0FFF7A8
:1038E000EFFE02B080BD0000FFF716BF80B582B0CA
:1038F000C5218DF807104FF0000C0DF107010122D2
:103900000023CDF800C0FFF717FF02B080BD000014
:1039100080B584B0D1E900138822CDF80910190CC4
:103920008DF80D10190A8DF808208DF80E108DF8FD
:103930000F304FF0000C02A908220023CDF800C080
:10394000FFF7FAFE04B080BD80B582B09D228DF8ED
:1039500006208DF807104FF0000C0DF10601022231
:103960000023CDF800C0FFF7E7FE02B080BD0000E5
:1039700080B584B08DF80C10110C97238DF80D10C4
:10398000110A8DF80B308DF80E108DF80F204FF0C6
:10399000000C0DF10B0105220023CDF800C0FFF74C
:1039A000CBFE04B080BD000080B584B04FF0080E9F
:1039B000DDF818C08DF807E04FEA112E8DF80910D8
:1039C000110A8DF80A10190A8DF80C104FEA1C2103
:1039D0008DF80B208DF80D308DF80E108DF80FC07E
:1039E0004FF0000C0DF10701092200238DF808E0CB
:1039F000CDF800C0FFF7A0FE04B080BDF0B585B0E3
:103A00000D46097804468B208DF807008DF80810C4
:103A1000B5F80100E978ADF8090001F001008DF872
:103A20000B0000270DF10701204605220023009717
:103A3000FFF782FE08B105B0F0BD40F61D00C0F2F0
:103A400089006E78CDF80D0001250DF10D0103AB55
:103A5000204604228DF80C700095FFF731FE0028F7
:103A6000E9D19DF80C10B01F18BF012001F0FB0137
:103A700041EA80008DF80C0040F60D00ADF8110011
:103A800089208DF813000DF1110103AB20460322AC
:103A90000095FFF751FE05B0F0BD000070B586B08F
:103AA0000D46098804468C208DF80A0008BAD5F81E
:103AB0000210000CADF80B00CDF80D1000260DF132
:103AC0000A012046072200230096FFF735FE08B1C1
:103AD00006B070BD40F21D70C0F236008DF809606E
:103AE000CDF8110001260DF111010DF10903204659
:103AF00004220096FFF7E4FD0028E9D168799DF8DB
:103B00000910B0FA80F0400901F0FB0141EA8000A1
:103B10008DF8090040F20D70ADF8150036208DF8D3
:103B200017000DF115010DF109032046032200963F
:103B3000FFF702FE06B070BD70B584B004460020E9
:103B4000ADF8060040F21D70C0F240000D46CDF801
:103B5000090002260DF109010DF106032046042299
:103B60000096FFF7ADFD08B104B070BD9DF80600EA
:103B70009DF8071000F00F0005F0F00210448DF8DA
:103B8000060001F00F0040EA05108DF8070040F232
:103B90000D70ADF80D0040208DF80F000DF10D01F6
:103BA0000DF10603204603220096FFF7C5FD04B081
:103BB00070BD000080B584B0096895228DF80B2097
:103BC00003914FF0000C0DF10B0105220023CDF8FD
:103BD00000C0FFF7B1FD04B080BD000080B582B029
:103BE0008A228DF806208DF807104FF0000C0DF199
:103BF000060102220023CDF800C0FFF79DFD02B0B0
:103C000080BD000080B582B096228DF806208DF828
:103C100007104FF0000C0DF1060102220023CDF831
:103C200000C0FFF789FD02B080BD000080B584B000
:103C30004DF6836CC4F21B3CA1FB0C324CF2F72313
:103C4000120BC0F2030302FB031141F6846343EA43
:103C50008131A1FB0C13190B01EB823286238DF805
:103C60000B30130E8DF80C30130C120A8DF80D303A
:103C70008DF80E208DF80F104FF0000C0DF10B0198
:103C800005220023CDF800C0FFF756FD04B080BD2B
:103C90004FF0000CBCEB914F1CBF0220704780B569
:103CA00082B082228DF804208A0A8DF805208A08C5
:103CB00089018DF806208DF8071001A90422002340
:103CC000CDF800C0FFF738FD02B080BD80B582B0EE
:103CD00093228DF806208DF807104FF0000C0DF19F
:103CE000060102220023CDF800C0FFF725FD02B037
:103CF00080BD000080B582B080228DF806208DF84E
:103D000007104FF0000C0DF1060102220023CDF840
:103D100000C0FFF711FD02B080BD000080B582B089
:103D20008E238DF805308DF806108DF807204FF0A2
:103D3000000C0DF1050103220023CDF800C0FFF7B0
:103D4000FBFC02B080BD0000B0B584B0044600208A
:103D50008DF8050040F60D10ADF8060002208DF834
:103D6000080001250DF106010DF10503204603228F
:103D70000095FFF7E1FC08B104B0B0BD40F61D109E
:103D8000C0F24400CDF809000DF109010DF1050361
:103D9000204604220095FFF793FC0028ECD19DF803
:103DA0000500012540F002008DF8050040F60D10D9
:103DB000ADF80D0044208DF80F000DF10D010DF14F
:103DC0000503204603220095FFF7B6FC04B0B0BD02
:103DD00080B584B044F20040C4F2000003904FF478
:103DE000E1300190002040F204420290C2F2000251
:103DF00003A801A9FFF784F904B080BDB0B5C0B035
:103E00000A4601460DF1010000F014F801280EDB0E
:103E100040F20440C2F200000DF10105046828469A
:103E2000FCF7F2F9024620462946FFF709FA40B0AE
:103E3000B0BD000037B514460846064B6A46214619
:103E400000F0E0F804466946002000F075FC2046CA
:103E50003EBD00003947000802E008C8121F08C133
:103E6000002AFAD170477047002001E001C1121FFB
:103E7000002AFBD1704700002DE9FF5F82B00021CE
:103E8000DDE90430020DDDF840B0034318D044F6FC
:103E90001050A2F2FF3242431514119801281FD08E
:103EA000A5EB0B00401C5FEA000A4FF000064E4FE6
:103EB000DFF83891B046504615D5CAF1000413E03A
:103EC000119801244AA3012801D16FEA0B0102983D
:103ED000119AC0E90031C0E9024206B000F08EB884
:103EE000CBF10000DFE704460021404A491842EBCD
:103EF0000450CDE9001012E0E00707D032463B46FF
:103F000040464946FCF780FA8046894632463B46A1
:103F100010461946FCF778FA06460F466410002C46
:103F2000EAD1DDE90401DDE90023BAF1000F06DA88
:103F3000FCF76AFA42464B46FCF766FA05E0FCF7E6
:103F4000D8FA42464B46FCF7D4FA04460E46002205
:103F5000284BFCF755FB03D84FF0FF30014607E034
:103F60000022254B20463146FCF79FF9FCF730FB39
:103F7000102409E0002C0ADB0A220023FCF761F977
:103F8000039B30321A55641E50EA0102F2D1641CC0
:103F9000039AC4F111031444119A012A03D0012297
:103FA00008430DD10AE0084304D000204FF0110B64
:103FB000119072E7A3EB0B056D1E0DE05B4504DD70
:103FC0004FF0000205F1010504E003DA4FF00002B2
:103FD000A5F10105002AECD002981199C0E902313F
:103FE000C0E9004579E70000000014400000F03F00
:103FF000300000000000F0430000E03F30BCBDE8AE
:10400000C09F00002DE9FF4F95B09B4689460646AC
:1040100000250FE2252877D100242746F84A012100
:10402000059400E0044316F8013F203B01FA03F039
:104030001042F7D130782A2811D06FF02F03307852
:10404000A0F13002092A16D8059A44F0020402EBC6
:10405000820203EB42021044761C0590EFE759F808
:10406000042B0592002A03DA504244F400540590D0
:1040700044F00204761C30782E2816D116F8010F71
:1040800044F004042A280DD06FF02F023078A0F1FC
:104090003003092B09D807EB870302EB4303C7184A
:1040A000761CF3E759F8047B761C30786C280FD027
:1040B00006DC4C2817D068280DD06A2814D104E0FB
:1040C000742810D07A280FD10DE044F400140AE0CF
:1040D00044F4801401E044F440147278824202D126
:1040E00004F58014761C761C307866280BD013DC1F
:1040F000582877D009DC002875D04528F6D0462806
:10410000F4D047281AD19DE118E0632835D06428FF
:1041100079D0652812D195E1702873D008DC672822
:10412000F1D069286FD06E280DD06F2806D1B5E088
:1041300073282CD0752875D0782874D05A461799D2
:1041400090476D1C75E1C4F30250022809D0032882
:104150000DD0D9F8001004280DD00D6009F1040924
:1041600067E1D9F80010EA17C1E90052F6E7D9F87B
:1041700000100D80F2E70D70F0E719F8041B8DF8C0
:10418000001000208DF80100EA46012003E059F8F4
:1041900004AB4FF0FF3061074FF0000102D40DE097
:1041A00008F101018846B9420FDA8045F8DB1AF8B8
:1041B00008100029F4D108E008F101018846814285
:1041C000FADB1AF808100029F6D105985B46A0EB37
:1041D000080721463846179A00F097FA284400EB62
:1041E000080507E04DE029E10DE01AF8010B5A46F9
:1041F00017999047B8F10108F7D25B462146384637
:10420000179A13E142E00A220092C4F302524FF0DF
:10421000000A022A08D059F804CB032A4FEAEC71AD
:104220000AD00DE029E02AE009F1070121F0070298
:10423000F2E802C1914609E00FFA8CFC4FEAEC71FA
:10424000042A03D14FFA8CFC4FEAEC71002907DAFB
:104250000A460021DCF1000C61EB02012D2202E094
:10426000220504D52B228DF80420012203E0E20769
:1042700001D02022F7E7904659E00A2102E01022FF
:104280000DE010214FF0000A00910BE010224FF0DA
:10429000000A44F004040827009203E008224FF0CB
:1042A000000A0092C4F30252022A05D059F804CB46
:1042B0000021032A08D009E009F1070121F00702D3
:1042C000F2E802C1914605E01FFA8CFC042A01D1F4
:1042D0000CF0FF0C4FF00008220728D5702806D0FC
:1042E000009B83F0100353EA0A0305D00EE040223E
:1042F0008DF80420012208E05CEA010206D0302299
:104300008DF804208DF8050002229046009B83F072
:10431000080353EA0A030AD15CEA010201D16207E9
:1043200005D530228DF804204FF001087F1E582853
:1043300004D034A003900EA802900DE036A0F9E757
:1043400053466046009AFBF77CFF84460398825CE4
:104350000298401E029002705CEA0100F0D10298BF
:1043600006A9081A00F1200A600702D524F4803457
:1043700000E00127574502DDA7EB0A0000E000201E
:1043800000EB0A01009005984144401A0590E003B3
:1043900006D45B462146179A059800F0B6F9054405
:1043A000002706E001A85A46C05D179990476D1C8A
:1043B0007F1C4745F6DBE0030CD55B462146179A88
:1043C000059800F0A2F9054404E030205A461799F8
:1043D00090476D1C0099481E00900029F5DC08E00C
:1043E000029802995A460078491C02911799904701
:1043F0006D1CBAF10001AAF1010AF1DC65E10000CF
:1044000009280100303132333435363738396162AA
:10441000636465660000000030313233343536376E
:1044200038394142434445460000000000F05BF942
:104430000544761C307800287FF4ECAD19B028468E
:1044400000F04EB9620700D4062709F1070222F0F6
:10445000070CFCE80223E14603F000485FEA080C81
:1044600002D00FF2702C0DE05FEA045C02D50FF26F
:10447000682C07E05FEAC47C02D00FF2602C01E0F8
:10448000AFF2700C4FF0FF3823F00043CDF850C06E
:1044900065280CD006DC452809D046281DD04728C1
:1044A0003DD13DE0662818D067287ED138E0002154
:1044B000112F01DB112000E0781CCDE9000106A9D5
:1044C0000EA8FFF7D9FCDDE90F010E9A0391002138
:1044D000009207F1010A04914DE04FF0004000976F
:1044E000CDE9011006A90EA8FFF7C6FCDDE90F0211
:1044F00003920E9B11990022DDF80CA00093049208
:1045000011B9791C00EB010AB7EB0A0004D4C0F121
:10451000FF3007F1010A0490AAEB0700019044E084
:10452000012F00DA01270021112F01DD112000E009
:104530003846CDE9000106A90EA8FFF79DFCDDE98C
:104540000F010E9A0391002104910092BA462107AF
:104550000CD40399514500DA8A46BAF1010F05DD02
:10456000009AAAF10101515C302908D0B84202DA60
:1045700010F1040F06DA0121CDE9011015E0AAF1CE
:104580000101E9E7002805DC049901440491AAEB44
:10459000000102E0411C514500DD8A460499401AA1
:1045A000401C01904FF000400290200704D4019875
:1045B000504501DBCDF8048000208DF84F000298B3
:1045C0000DF14F07B0F1004F25D02B200E9002982F
:1045D0004FF0020800280CDA404202902D200E9085
:1045E00007E00A210298FBF716FE3031029007F827
:1045F000011DB8F10001A8F10108F2DC02980028C1
:10460000EFD1791E0E980870307800F0200040F04D
:10461000450007F8020D12A8C01B00F10708149806
:10462000007800B1012000EB0A01019801EBE07174
:1046300005984144401A401E0590E00306D45B46AD
:104640002146179A059800F060F805441498007800
:1046500018B15A46179990476D1CE00324D55B4664
:104660002146179A059800F050F805441CE004987C
:10467000002807DBDDE90301884203DD0098405C88
:10468000179901E0179930205A469047049805F190
:104690000105401C04900198401E019004D12E2079
:1046A0005A46179990476D1CBAF10001AAF1010A08
:1046B000DDDC05E017F8010B5A46179990476D1C91
:1046C000B8F10001A8F10108F4DC5B462146179A15
:1046D0000598ABE62D0000002B0000002000000034
:1046E00030BCBDE8C08F2DE9F041044600251E46D0
:1046F0001746880404D405E039462020B0476D1CD5
:10470000641EF9D52846BDE8F0812DE9F041044644
:1047100000251E469046C80301D5302700E020271B
:10472000880404D505E041463846B0476D1C641E38
:10473000F9D52846BDE8F0810A68531C0B6010705B
:104740007047AC0889083607841E0000093D000048
:10475000127A000024F4000048E8010090D0030021
:1047600020A1070000000000B128000061510000F6
:10477000C3A20000000000000000000001020304CA
:10478000060708090000000001020304A0860100DA
:10479000400D0300801A060000350C0040420F0057
:1047A00080841E0000093D0000127A000024F400FD
:1047B00000366E010048E801006CDC020000004891
:1047C000080000000000004804000000000000484D
:1047D0000004000000040048080000000004004835
:1047E0002000000000040048100000000004004801
:1047F0000004000000000048000100000000004824
:10480000000200000008004880000000000400488A
:104810004000000000000048800000000000004848
:104820004000000000000048200000000004004894
:1048300000020000000400480001000000000048E1
:1048400001000000000000480200000000000048D5
:1048500010000000000400480100000000080048AB
:104860000200000000080048010000001000007C69
:104870000000F200000101F300000101F40000015A
:1048800001F600000101F404000101F7010001013B
:10489000F702000101FA00000101FA01000101FC28
:1048A00000000101FB03000101FE00000101FF0007
:1048B00000010100000001010100000101020000EF
:1048C00001010300000101030100010103030001D4
:1048D00001060000010107000001010603000101BB
:1048E000090000010108030001010C000001010D95
:1048F000000001010E000001010E010001010E0186
:104900000001010E030001010E040001010E05006B
:1049100001010E070001010305071008161600002B
:10492000000600002C01000052656365697665642D
:10493000206D6F7265206279746573207468616E92
:10494000206578706563746564202825642076731B
:10495000202564292C20726563657074696F6E2050
:10496000696E206275666665722063616E63656C50
:104970006C65642E0A004C6F5261206D6F64756C1B
:104980006174696F6E20706172616D6574657273B8
:104990003A0A004C6F5261207061636B657420703D
:1049A0006172616D65746572733A0A00496E202503
:1049B00073202D20257320286C696E6520256429BD
:1049C0003A2053746174757320636F6465203D20D1
:1049D00025640A00202020527820626F6F737420B3
:1049E0006D6F6465202573616374697661746564B5
:1049F0000A00496E76616C6964207461726765743F
:104A0000206672657175656E6379206F7220706FB4
:104A1000776572206C6576656C0A002020204F75E2
:104A20007470757420706F776572202020203D208F
:104A300025642064426D0A00496E202573202D20D4
:104A4000257320286C696E65202564293A2025731A
:104A50000A0020202042616E647769647468202017
:104A60002020202020203D2025730A0020202043E4
:104A70006F64696E67207261746520202020202099
:104A80003D2025730A002020205061636B6574204F
:104A90007479706520202020203D2025730A002095
:104AA000202046616C6C6261636B206D6F646520D1
:104AB00020203D2025730A0020202053707265615C
:104AC00064696E6720466163746F72203D202573B0
:104AD0000A002020205246204672657120202020A6
:104AE00020202020203D20256420487A0A005741BC
:104AF000524E3A2000494E464F3A20004552524FFE
:104B0000523A20005358313236585F53544154556D
:104B1000535F4552524F52002E2E2F2E2E2F636F71
:104B20006D6D6F6E2F617070735F636F6D6D6F6E03
:104B30002E63001B5B306D001B5B303B33316D001F
:104B40001B5B303B33326D001B5B303B33336D00FE
:104B5000617070735F636F6D6D6F6E5F737831320C
:104B600036785F6972715F70726F6365737300612D
:104B70007070735F636F6D6D6F6E5F737831323617
:104B8000785F726164696F5F646270736B5F696E96
:104B9000697400617070735F636F6D6D6F6E5F73CA
:104BA00078313236785F726164696F5F696E6974FB
:104BB00000617070735F636F6D6D6F6E5F737831DE
:104BC0003236785F696E697400434144206D6179C3
:104BD000206E6F742066756E6374696F6E207072DC
:104BE0006F7065726C79207768696C652075736980
:104BF0006E6720746865736520726164696F2070E8
:104C00006172616D65746572730A002E2E2F6D617D
:104C1000696E5F415346535F4170702E63006F6E43
:104C20005F707265616D626C655F756E64657465F9
:104C30006374656400696E69745F61707000737499
:104C40006172745F6361645F61667465725F6465FD
:104C50006C6179005358313236585F4746534B5F89
:104C600042575F333132303030005358313236588A
:104C70005F4746534B5F42575F3436373030300022
:104C80005358313236585F4746534B5F42575F3374
:104C900039303030005358313236585F4746534B25
:104CA0005F42575F3135363230300053583132363B
:104CB000585F4746534B5F42575F31383732303089
:104CC000005358313236585F4746534B5F42575F67
:104CD0003738323030005358313236585F474653F8
:104CE0004B5F42575F3233343330300053583132E8
:104CF00036585F4746534B5F42575F313137333049
:104D000030005358313236585F4746534B5F425755
:104D10005F37333030005358313236585F4746538F
:104D20004B5F42575F32393330300053583132369F
:104D3000585F4746534B5F42575F32333430300041
:104D40005358313236585F4746534B5F42575F31B5
:104D500039353030005358313236585F4C4F52415C
:104D60005F42575F353030005358313236585F4715
:104D700046534B5F42575F3337333630300053581A
:104D8000313236585F4746534B5F42575F313436B6
:104D90003030005358313236585F4746534B5F42EC
:104DA000575F3538363030005358313236585F4708
:104DB00046534B5F42575F313137303000535831E3
:104DC0003236585F4746534B5F42575F3937303072
:104DD000005358313236585F4746534B5F42575F56
:104DE0003933383030005358313236585F474653E4
:104DF0004B5F42575F3438303000535831323658A9
:104E00005F4746534B5F42575F3538303000535849
:104E1000313236585F4746534B5F42575F3436391D
:104E20003030005358313236585F4C4F52415F4258
:104E3000575F303130005358313236585F4C4F5243
:104E4000415F53463130005358313236585F4C4F32
:104E500052415F42575F303230005358313236583A
:104E60005F4C4F52415F42575F32353000535831EB
:104E70003236585F4C4F52415F53463131005358E0
:104E8000313236585F4C4F52415F42575F303331B9
:104E9000005358313236585F4C4F52415F42575F92
:104EA000303431005358313236585F4746534B5FE8
:104EB00050554C53455F53484150455F42545F3114
:104EC000005358313236585F4C4F52415F53463190
:104ED00032005358313236585F4C4F52415F42577F
:104EE0005F303632005358313236585F4746534BA5
:104EF0005F50554C53455F53484150455F42545FA6
:104F00003033005358313236585F4746534B5F5069
:104F1000554C53455F53484150455F42545F3035CF
:104F2000005358313236585F4C4F52415F42575F01
:104F3000303135005358313236585F4C4F52415F53
:104F400042575F313235005358313236585F4C4F3B
:104F500052415F534635005358313236585F4C4FFB
:104F600052415F43525F345F3500535831323658F7
:104F70005F4C4F52415F53463600535831323658DA
:104F80005F4C4F52415F43525F345F36005358319C
:104F90003236585F4C4F52415F42575F30303700D6
:104FA0005358313236585F4746534B5F50554C5338
:104FB000455F53484150455F42545F303700535876
:104FC000313236585F4C4F52415F53463700535889
:104FD000313236585F4C4F52415F43525F345F3736
:104FE000005358313236585F4C4F52415F53463868
:104FF000005358313236585F4C4F52415F43525F35
:10500000345F38005358313236585F4C4F52415F4D
:10501000534639005358313236585F504B545F5421
:105020005950455F4C4F5241005358313236585F0A
:105030004341445F30315F53594D42005358313240
:1050400036585F4341445F30325F53594D420053FD
:1050500058313236585F4341445F30345F53594DC5
:1050600042005358313236585F4341445F31365F16
:1050700053594D42005358313236585F4341445FD3
:1050800030385F53594D42005358313236585F43E0
:105090004849505F4D4F44455F535442595F524316
:1050A000005358313236585F434849505F4D4F44A2
:1050B000455F535442595F584F5343005358313260
:1050C00036585F434849505F4D4F44455F554E55F4
:1050D000534544005358313236585F434D445F5373
:1050E00054415455535F524553455256454400531D
:1050F00058313236585F434D445F535441545553F1
:105100005F444154415F415641494C41424C450046
:105110005358313236585F4746534B5F41444452EF
:105120004553535F46494C544552494E475F4449A5
:105130005341424C45005358313236585F434D4439
:105140005F5354415455535F434D445F54585F443B
:105150004F4E45005358313236585F434D445F53EC
:1051600054415455535F434D445F455845435F4652
:1051700041494C555245005358313236585F5354CB
:10518000415455535F554E535550504F525445441A
:105190005F46454154555245005358313236585FA9
:1051A0004746534B5F4352435F315F42595445007A
:1051B0005358313236585F5354415455535F554E0E
:1051C0004B4E4F574E5F56414C5545005358313268
:1051D00036585F4746534B5F4352435F4F46460046
:1051E0005358313236585F4746534B5F50554C53F6
:1051F000455F53484150455F4F4646005358313252
:1052000036585F4746534B5F505245414D424C45DF
:105210005F4445544543544F525F4F4646005358F0
:10522000313236585F5354415455535F4F4B0053FE
:1052300058313236585F504B545F545950455F4790
:1052400046534B005358313236585F504B545F54DD
:105250005950455F4250534B005358313236585FD6
:10526000434D445F5354415455535F434D445F5045
:10527000524F434553535F4552524F52005358319A
:105280003236585F4746534B5F414444524553536F
:105290005F46494C544552494E475F4E4F44455F27
:1052A000414E445F42524F4144434153545F414455
:1052B00044524553534553005358313236585F4793
:1052C00046534B5F4352435F325F4259544553004C
:1052D0005358313236585F434849505F4D4F44452B
:1052E0005F4653005358313236585F4746534B5F41
:1052F000414444524553535F46494C544552494EEC
:10530000475F4E4F44455F41444452455353005319
:1053100058313236585F504B545F545950455F4CAA
:10532000525F46485353005358313236585F474610
:10533000534B5F505245414D424C455F44455445A7
:1053400043544F525F4D494E5F33324249545300EC
:105350005358313236585F4746534B5F50524541A0
:105360004D424C455F4445544543544F525F4D496F
:105370004E5F323442495453005358313236585FED
:105380004746534B5F505245414D424C455F444563
:10539000544543544F525F4D494E5F313642495454
:1053A00053005358313236585F4746534B5F505283
:1053B00045414D424C455F4445544543544F525F2F
:1053C0004D494E5F38424954530053583132365894
:1053D0005F52414D505F3230305F5553005358316A
:1053E0003236585F52414D505F333430305F555341
:1053F000005358313236585F52414D505F3137308B
:10540000305F5553005358313236585F52414D503A
:105410005F3830305F5553005358313236585F5241
:10542000414D505F31305F5553005358313236583B
:105430005F52414D505F32305F5553005358313207
:1054400036585F52414D505F34305F5553005358CA
:10545000313236585F52414D505F38305F555300FE
:105460005358313236585F434D445F53544154557D
:10547000535F434D445F54494D454F555400535875
:10548000313236585F434849505F4D4F44455F5273
:105490004655005358313236585F434D445F53549C
:1054A000415455535F524655005358313236585F78
:1054B0005443584F5F4354524C5F335F3056005350
:1054C00058313236585F5443584F5F4354524C5F03
:1054D000325F3256005358313236585F5443584F7A
:1054E0005F4354524C5F335F33560053583132366A
:1054F000585F5443584F5F4354524C5F325F3456A9
:10550000005358313236585F5443584F5F4354521A
:105510004C5F315F3656005358313236585F544332
:10552000584F5F4354524C5F315F375600535831E8
:105530003236585F5443584F5F4354524C5F325F8A
:105540003756005358313236585F5443584F5F43F3
:1055500054524C5F315F3856005358313236585FE1
:105560004746534B5F4352435F315F425954455F57
:10557000494E56005358313236585F4746534B5FB9
:105580004352435F325F42595445535F494E560080
:105590005358313236585F434849505F4D4F444568
:1055A0005F5258005358313236585F434849505F74
:1055B0004D4F44455F545800556E6B6E6F776E00CB
:1055C000E05500080000002020000000583E0008C0
:1055D000005600082000002050080000683E000827
:1055E000000000000707000000093D0089320008A4
:1055F000E1320008D1320008D5320008C532000877
:040000050800018965
:00000001FF
